{
  "contractName": "Lottery",
  "abi": [
    {
      "inputs": [],
      "stateMutability": "nonpayable",
      "type": "constructor"
    },
    {
      "anonymous": false,
      "inputs": [
        {
          "indexed": false,
          "internalType": "string",
          "name": "message",
          "type": "string"
        }
      ],
      "name": "drawException",
      "type": "event"
    },
    {
      "anonymous": false,
      "inputs": [
        {
          "indexed": true,
          "internalType": "uint256",
          "name": "counter",
          "type": "uint256"
        },
        {
          "indexed": false,
          "internalType": "address",
          "name": "winner",
          "type": "address"
        },
        {
          "indexed": false,
          "internalType": "string",
          "name": "message",
          "type": "string"
        }
      ],
      "name": "winner",
      "type": "event"
    },
    {
      "inputs": [],
      "name": "owner",
      "outputs": [
        {
          "internalType": "address",
          "name": "",
          "type": "address"
        }
      ],
      "stateMutability": "view",
      "type": "function",
      "constant": true
    },
    {
      "inputs": [
        {
          "internalType": "uint256",
          "name": "tickets",
          "type": "uint256"
        },
        {
          "internalType": "uint256",
          "name": "price",
          "type": "uint256"
        },
        {
          "internalType": "uint256",
          "name": "uptoDate",
          "type": "uint256"
        }
      ],
      "name": "startLottery",
      "outputs": [],
      "stateMutability": "payable",
      "type": "function",
      "payable": true
    },
    {
      "inputs": [],
      "name": "buyTicket",
      "outputs": [],
      "stateMutability": "payable",
      "type": "function",
      "payable": true
    },
    {
      "inputs": [],
      "name": "drawWinner",
      "outputs": [],
      "stateMutability": "nonpayable",
      "type": "function"
    },
    {
      "inputs": [],
      "name": "status",
      "outputs": [
        {
          "internalType": "uint256",
          "name": "",
          "type": "uint256"
        },
        {
          "internalType": "uint256",
          "name": "",
          "type": "uint256"
        },
        {
          "internalType": "uint256",
          "name": "",
          "type": "uint256"
        },
        {
          "internalType": "uint256",
          "name": "",
          "type": "uint256"
        },
        {
          "internalType": "uint256",
          "name": "",
          "type": "uint256"
        }
      ],
      "stateMutability": "view",
      "type": "function",
      "constant": true
    }
  ],
  "bytecode": "0x60806040526000805560006001556000600255600060035560006004556001600560006101000a81548160ff02191690831515021790555034801561004357600080fd5b5033600560016101000a81548173ffffffffffffffffffffffffffffffffffffffff021916908373ffffffffffffffffffffffffffffffffffffffff1602179055506108e6806100946000396000f3fe60806040526004361061004a5760003560e01c8063200d2ed21461004f5780632cff0b6d146100965780638da5cb5b146100d8578063b2185bb114610119578063edca914c14610130575b600080fd5b34801561005b57600080fd5b5061006461013a565b604051808681526020018581526020018481526020018381526020018281526020019550505050505060405180910390f35b6100d6600480360360608110156100ac57600080fd5b81019080803590602001909291908035906020019092919080359060200190929190505050610161565b005b3480156100e457600080fd5b506100ed6102cf565b604051808273ffffffffffffffffffffffffffffffffffffffff16815260200191505060405180910390f35b34801561012557600080fd5b5061012e6102f5565b005b6101386103df565b005b60008060008060008054600454600154600254600654945094509450945094509091929394565b600560019054906101000a900473ffffffffffffffffffffffffffffffffffffffff1673ffffffffffffffffffffffffffffffffffffffff163373ffffffffffffffffffffffffffffffffffffffff16146101bb57600080fd5b60006004541480156101ce575060008054145b610223576040517f08c379a00000000000000000000000000000000000000000000000000000000081526004018080602001828103825260368152602001806108356036913960400191505060405180910390fd5b6000821180156102335750600183115b610288576040517f08c379a000000000000000000000000000000000000000000000000000000000815260040180806020018281038252604681526020018061086b6046913960600191505060405180910390fd5b82600081905550816001819055506000546004819055506002546002819055506000600560006101000a81548160ff02191690831515021790555080600681905550505050565b600560019054906101000a900473ffffffffffffffffffffffffffffffffffffffff1681565b600560019054906101000a900473ffffffffffffffffffffffffffffffffffffffff1673ffffffffffffffffffffffffffffffffffffffff163373ffffffffffffffffffffffffffffffffffffffff161461034f57600080fd5b600060045414801561036e5750600560009054906101000a900460ff16155b801561037b575042600654115b1561038d5761038861057c565b6103dd565b7f814c05dfbe528b4c98c6f715e91f8d08e7f436692ea2ecb983f1ca89d5d6df2e6040518080602001828103825260368152602001806107ff6036913960400191505060405180910390a1600080fd5b565b6000600454141580156103f3575060015434145b8015610400575042600654115b80156104565750600860003373ffffffffffffffffffffffffffffffffffffffff1673ffffffffffffffffffffffffffffffffffffffff16815260200190815260200160002060009054906101000a900460ff16155b6104ab576040517f08c379a000000000000000000000000000000000000000000000000000000000815260040180806020018281038252605b8152602001806107a4605b913960600191505060405180910390fd5b6001600454036004819055503360076000600360008154600101919050819055815260200190815260200160002060006101000a81548173ffffffffffffffffffffffffffffffffffffffff021916908373ffffffffffffffffffffffffffffffffffffffff16021790555034600254016002819055506001600860003373ffffffffffffffffffffffffffffffffffffffff1673ffffffffffffffffffffffffffffffffffffffff16815260200190815260200160002060006101000a81548160ff021916908315150217905550565b600560009054906101000a900460ff16610599576105986105e5565b5b6001600560006101000a81548160ff0219169083151502179055506000600281905550600080819055506000600481905550600060018190555060006003819055506000600681905550565b600080546105f161076a565b816105f857fe5b06905060006007600083815260200190815260200160002060009054906101000a900473ffffffffffffffffffffffffffffffffffffffff169050817f581ef5953622b39eaa762cbef003165e55864c86cb3275c3b7ddeee3f738ee6182604051808273ffffffffffffffffffffffffffffffffffffffff168152602001806020018281038252601a8152602001807f546865204c6f74746572792057696e6e657220666f756e6421210000000000008152506020019250505060405180910390a23373ffffffffffffffffffffffffffffffffffffffff166108fc6064600a60025402816106e357fe5b049081150290604051600060405180830381858888f1935050505015801561070f573d6000803e3d6000fd5b508073ffffffffffffffffffffffffffffffffffffffff166108fc6064605a600254028161073957fe5b049081150290604051600060405180830381858888f19350505050158015610765573d6000803e3d6000fd5b505050565b6000444260405160200180838152602001828152602001925050506040516020818303038152906040528051906020012060001c90509056fe5469636b65742050726963652073686f756c6420657175616c20746f207468652053656e6465722076616c7565206f7220417661696c61626c65205469636b65742073686f756c64206e6f7420657175616c20746f207a65726f2e4c6f7474657279206973206e6f7420636f6d706c6574656420796574206f7220456e64204461746520697320636f6d706c657465642e50726576696f7573204c6f74746572792073686f756c6420636c6f7365206265666f7265207374617274206e6577204c6f74746572795469636b6574204e756d6265722073686f756c642067726561746572207468616e2031204f522050726963652073686f756c642067726561746572207468616e207a65726f2ea2646970667358221220cb1469bfc298d2964f2e519d0ca4704bae5bbe6d0993bd50d2a908e224f969e664736f6c63430007000033",
  "immutableReferences": {},
  "source": "pragma solidity 0.7.0;\n\ncontract Lottery {\n  uint internal nTickets = 0;     // number of tickets\n  uint internal ticket_price = 0; // ticket pice\n  uint internal prize = 0;        // winner prize\n  uint internal counter = 0;      // current ticket\n  uint internal aTickets = 0;     // number of available tickets\n  bool internal finished = true;\n  address public owner;\n  uint endDate;\n  \n\n  mapping (uint => address) internal players;     // players map\n  mapping (address => bool) internal addresses;   // player address\n\n  // Event that is called when the winner is found.\n  event winner(uint indexed counter, address winner, string message);\n  \n  event drawException(string message);\n  constructor() {\n    owner = msg.sender;\n  }\n\n  modifier onlyOwner() {\n    require(msg.sender == owner);\n    _;\n  }\n  \n \n  function startLottery(uint tickets, uint price, uint uptoDate) public payable onlyOwner{\n      require(aTickets == 0 && nTickets == 0, \"Previous Lottery should close before start new Lottery\");\n    require (price > 0 && tickets > 1,\n    \"Ticket Number should greater than 1 OR Price should greater than zero.\");\n    nTickets = tickets;\n    ticket_price = price;\n    aTickets = nTickets;\n    prize = prize;\n    finished = false;\n    endDate = uptoDate;\n  }\n  \n  \n  // Function to buy a ticket\n  function buyTicket() public payable {\n      require (aTickets != 0 && msg.value == ticket_price && endDate > block.timestamp && !addresses[msg.sender], \"Ticket Price should equal to the Sender value or Available Ticket should not equal to zero.\");\n    aTickets = aTickets - 1;\n    players[++counter] = msg.sender;\n    prize = prize + msg.value;\n    addresses[msg.sender] = true;\n  }\n  \n  \n  function drawWinner() public onlyOwner{\n       if (aTickets == 0 && !finished && endDate > block.timestamp) {\n      endLottery();\n    }else {\n        emit drawException(\"Lottery is not completed yet or End Date is completed.\");\n        revert();\n    }\n  }\n  \n  \n  // Return the current status\n  function status() public view returns(uint, uint, uint, uint, uint) {\n    return (nTickets, aTickets, ticket_price, prize, endDate);\n  }\n\n \n  // End the contract and to find a winner\n  function endLottery() internal {\n      if (!finished) {\n        getWinner();\n      }\n      finished = true;\n      prize = 0;\n      nTickets = 0;\n      aTickets = 0;\n      ticket_price = 0;\n      counter = 0;\n      endDate = 0;\n  }\n  \n  function random() private view returns (uint){\n      return uint(keccak256(abi.encodePacked(block.difficulty, block.timestamp)));\n  }\n\n  // Generate the winner and transfer the prize to his address\n  function getWinner() internal {\n    uint index = random() % nTickets;\n    address payable winnerAddr = address(uint160(players[index]));\n    emit winner(index, winnerAddr, \"The Lottery Winner found!!\");\n    msg.sender.transfer(prize * 10/100);\n    winnerAddr.transfer(prize * 90/100);\n  }\n}",
  "sourcePath": "C:/Users/muham/Downloads/LotteryFinal/contracts/Lottery.sol",
  "compiler": {
    "name": "solc",
    "version": "0.7.0+commit.9e61f92b.Emscripten.clang"
  },
  "schemaVersion": "3.3.2",
  "updatedAt": "2021-03-07T07:36:13.718Z",
  "networkType": "ethereum",
  "devdoc": {
    "kind": "dev",
    "methods": {},
    "version": 1
  },
  "userdoc": {
    "kind": "user",
    "methods": {},
    "version": 1
  }
}